S00D0000436C6F636B2E737265632B
S11300000C942A000C9449010C94B1010C944700FF
S11300100C9447000C9447000C9447000C94470040
S11300200C9447000C9447000C9447000C94AA00CD
S11300300C9447000C9447000C9447000C94470020
S11300400C9447000C9447000C9447000C94470010
S11300500C94470011241FBECFE5D8E0DEBFCDBF0E
S113006010E0A0E6B0E0EEE9F7E002C005900D92E2
S1130070A439B107D9F710E0A4E9B0E001C01D929A
S1130080AA39B107E1F70E9449000C94CD030C94FE
S113009000008FB78F778FBF0E94860281E00E9495
S11300A02C0280E690E00E941A038FEF99E6A8E103
S11300B081509040A040E1F700C0000081E00E9420
S11300C02C0281E790E00E941A038FEF99E6A8E1E1
S11300D081509040A040E1F700C000008A988B98BE
S11300E08C9885B7816085BF85B7826085BF8BB7E3
S11300F080648BBF85B7846085BF85B7886085BF02
S11301008BB780688BBF789486E090E00E941B02D6
S11301108093990087E090E00E941B0280939800EE
S113012088E090E00E941B02809397000E949B034A
S113013080B384FDFDCF8FEF99E6A8E18150904014
S1130140A040E1F700C00000809194008F5F80938D
S11301509400EECF1F920F920FB60F9211242F939B
S11301603F934F935F936F937F938F939F93AF933B
S1130170BF93EF93FF938091950090919600019621
S113018090939600809395008E33910509F070C08A
S1130190809199008F5F809399008C33F0F01092D6
S11301A09900809198008F5F809398008C33A8F019
S11301B010929800809197008F5F809397008C3005
S11301C039F49091920081E089278093920005C0D0
S11301D08D3018F081E08093970086E090E0609184
S11301E099000E94230287E090E0609198000E94A9
S11301F0230288E090E0609197000E94230210920D
S113020096001092950081E00E942C0284E80E94DE
S11302102C0281E890E00E941A0383EC0E942C02D5
S11302206091970070E080E090E00E9430038AE3E0
S11302300E94C0026091980070E080E090E00E940B
S113024030038AE30E94C0026091990070E080E06C
S113025090E00E94300380919200813029F48AE872
S113026090E00E941A0304C08EE890E00E941A03F2
S1130270FF91EF91BF91AF919F918F917F916F917A
S11302805F914F913F912F910F900FBE0F901F9050
S113029018951F920F920FB60F9211242F933F932C
S11302A04F935F936F937F938F939F93AF93BF937A
S11302B0EF93FF9380919400882381F480919900B7
S11302C08F5F809399008C3310F01092990086E030
S11302D090E0609199000E94230232C0813081F441
S11302E0809198008F5F809398008C3310F0109267
S11302F0980087E090E0609198000E94230220C05B
S1130300823089F4809197008F5F809397008D30BD
S113031019F481E08093970088E090E06091970061
S11303200E9423020DC0833039F49091920081E041
S113033089278093920004C0843010F010929400B6
S1130340FF91EF91BF91AF919F918F917F916F91A9
S11303505F914F913F912F910F900FBE0F901F907F
S113036018951F920F920FB60F9211242F933F935B
S11303704F935F936F937F938F939F93AF93BF93A9
S1130380EF93FF9380919400882389F480919900DE
S1130390815080939900882319F48BE3809399000A
S11303A086E090E0609199000E94230233C081307E
S11303B089F480919800815080939800882319F4DF
S11303C08BE38093980087E090E0609198000E940E
S11303D0230220C0823089F4809197008150809359
S11303E09700882319F48CE08093970088E090E0CC
S11303F0609197000E9423020DC0833039F49091DC
S1130400920081E089278093920004C0843010F028
S113041010929400FF91EF91BF91AF919F918F91B2
S11304207F916F915F914F913F912F910F900FBEEC
S11304300F901F9018952CB321FDFDCF9FBB8EBB51
S1130440E09A8DB308952CB321FDFDCF9FBB8EBBE5
S11304506DBBE29AE19A0895D998982F92959F706E
S113046090FF02C0DB9A01C0DB98982F9295969575
S1130470977090FF02C0DC9A01C0DC98982F929587
S113048096959695937090FF02C0DD9A01C0DD9811
S1130490882314F4DE9A01C0DE98DA9AEFE9FFE0CB
S11304A03197F1F700C00000DA98EFE9FFE03197E7
S11304B0F1F700C0000080FF02C0DB9A01C0DB98A6
S11304C0982F969590FF02C0DC9A01C0DC98982F73
S11304D09695969590FF02C0DD9A01C0DD988695A9
S11304E08695869580FF02C0DE9A01C0DE98DA9A6E
S11304F08FE99FE00197F1F700C00000DA98EFE977
S1130500FFE03197F1F700C0000008958AB38E67C9
S11305108ABB83E00E942C028FE79EE30197F1F7E8
S113052000C0000083E00E942C02AFE7BEE31197F5
S1130530F1F700C0000083E00E942C028FE79EE3E5
S11305400197F1F700C0000082E00E942C0288E2CB
S11305500E942C0288E00E942C0281E00E942C025E
S113056086E00E942C028FEF99EFA0E0815090402A
S1130570A040E1F700C000008CE00E942C02089526
S1130580D99A982F92959F7090FF02C0DB9A01C070
S1130590DB98982F92959695977090FF02C0DC9AFD
S11305A001C0DC98982F929596959695937090FF3C
S11305B002C0DD9A01C0DD98882314F4DE9A01C0DC
S11305C0DE98DA9AEFE9FFE03197F1F700C0000016
S11305D0DA98EFE9FFE03197F1F700C0000080FFFF
S11305E002C0DB9A01C0DB98982F969590FF02C059
S11305F0DC9A01C0DC98982F9695969590FF02C0DE
S1130600DD9A01C0DD9886958695869580FF02C0A7
S1130610DE9A01C0DE98DA9A8FE99FE00197F1F73C
S113062000C00000DA98EFE9FFE03197F1F700C06D
S1130630000008950F931F93CF938C01FC018081D8
S1130640882351F0C0E00E94C002CF5FF801EC0F94
S1130650F11D80818823B9F7CF911F910F910895DF
S11306608F929F92AF92BF92EF92FF921F93CF937C
S1130670DF93CDB7DEB72A970FB6F894DEBF0FBE6F
S1130680CDBFDC01CB01AE014F5F5F4F2AE0FA0121
S113069011922A95E9F70097A105B10521F480E3A9
S11306A00E94C00238C010E00F2EFAE08F2EF0E056
S11306B09F2EF0E0AF2EF0E0BF2EF02DE12EFF24B0
S11306C0E7FCF09421E030E02C0F3D1FE20EF31E16
S11306D0BC01CD01A50194010E94AB03605DF7014B
S11306E06083822F932FA42FB52F1F5F0097A1053E
S11306F0B10521F711507AF0E12FFF27E7FDF095BE
S113070021E030E02C0F3D1FE20FF31F80810E9497
S1130710C002115088F72A960FB6F894DEBF0FBEB8
S1130720CDBFDF91CF911F91FF90EF90BF90AF901D
S11307309F908F90089585E883BF89B7816089BFB2
S1130740789408958DE883BF88EC8CBF89B7826064
S113075089BF78940895A1E21A2EAA1BBB1BFD0140
S11307600DC0AA1FBB1FEE1FFF1FA217B307E4078C
S1130770F50720F0A21BB30BE40BF50B661F771FE4
S1130780881F991F1A9469F76095709580959095C4
S11107909B01AC01BD01CF010895F894FFCF89
S113079E322072657365742074696D652075736596
S11307AE0050443220262050443320262050443416
S11307BE004D7920436C6F636B0020414D00205037
S10707CE4D000100D5
S9030000FC
